:060000000A128A11122809
:10000800FE00030EF0000408F1000A08F200831253
:1000180003137F08F3000A128A15362E0A128A1172
:10002800152883135F30840067300A128A152E263C
:100038000A128A11A0308400B1300A128A152E26BD
:1000480083010A128A116D2B83120313C600333001
:10005800BB003B08C1000130B207FF303207840003
:100068000A128A150A200A128A11BB003B08CB0023
:10007800CB0803195F2A4B08253A03194F284B0868
:10008800BB00460884003B08831380000130BB0096
:100098003B08C6072F28C701C801C00132088400E1
:1000A8000A128A150A200A128A110A128A15422689
:1000B8000A128A11031CA22883120313C701C8015C
:1000C8000A30F4000030F500831203134808F701E2
:1000D800F7074708F601F6070A128A1510270A12C9
:1000E8008A11750883120313C801C8077408C70169
:1000F800C707320884000A128A150A200A128A11D0
:10010800D03EBB00FF3003180030BC003B08C707D7
:100118000318C80A3C08C8070130BB003B08B207EF
:10012800320884000A128A150A200A128A110A1251
:100138008A1542260A128A110318642883120313A7
:10014800320884000A128A150A200A128A112E3AE5
:10015800031DF0280130BB003B08B207C901CA01E2
:10016800320884000A128A150A200A128A110A1211
:100178008A1542260A128A11031CFC2883120313CB
:100188004A08F501F5074908F401F4070A30F600B2
:100198000030F7000A128A1510270A128A118312F2
:1001A8000313320884000A128A150A200A128A11D7
:1001B8007407BB000030031801307507BC003B080A
:1001C800D03EC9003C080318013EFF3ECA0001307A
:1001D800BB003B08B207B42883120313C901CA0144
:1001E800FC284016FC28C030BB003B08C00413297B
:1001F800013083120313B207FF30320784000A125A
:100208008A150A200A128A11CB00003A03195F2ABC
:100218006C3A0319F528193A0319F7282F28401EB4
:1002280025294108840083130008C200840A0008B5
:10023800C300840A0008C400840A0008C50004300A
:1002480034294108840083130008BB00840A00088D
:10025800BC003B08C2003C08C300C401C501023011
:10026800BB003B08C1074A084904031D4729450844
:10027800440443044204031D47290130C9070318F5
:10028800CA0A0030CA07CB01CB0A4B080A3A03193D
:1002980089294B08BB0001300310BB0DFF3E031D2D
:1002A800502903103B0D013E84000A128A150A20CA
:1002B8000A128A11BC000A128A150A200A128A1127
:1002C800BD000A128A150A200A128A11BE000A12F3
:1002D8008A150A200A128A11BF003F084502031D29
:1002E8007F293E084402031D7F293D084302031D60
:1002F8007F293C084202031C89290130BB003B08C6
:10030800CB074B080A3A031D4D294B08BB00BC011B
:10031800BB1BBC033C08803ABD004A08803A3D023A
:10032800031D982949083B020318A12983120313C6
:100338004908BB003B08CB00BB29831203134B08B9
:10034800BB00BC01BB1BBC034A08803ABD003C088B
:10035800803A3D02031DB2293B0849020318BB2914
:10036800831203134B08C900CA01C91BCA038312AD
:1003780003134B08BB00BC01BB1BBC033C08803A01
:10038800BD004808803A3D02031DCC2947083B02BE
:100398000318DC29831203134B08BB00BC01BB1BE9
:1003A800BC033B08C7023C08031CC803C802E02979
:1003B80083120313C701C801480847040319502AC8
:1003C8002030BB00460884003B08831380000130BE
:1003D800BB003B08C607FF30C7070318C80AFF3031
:1003E800C807E0290030AB000030AA000030A9009F
:1003F8000A30A8004908BB0001300310BB0DFF3EBE
:10040800031D012A03103B0D013E84000A128A15C0
:100418000A200A128A11A0000A128A150A200A1252
:100428008A11A1000A128A150A200A128A11A2004A
:100438000A128A150A200A128A11A3004508A70081
:100448004408A6004308A5004208A4000A128A111D
:1004580056270A128A11831203132308AF002208B1
:10046800AE002108AD002008AC000A128A155B27EF
:100478000A128A11831203132808303EBC003C0874
:10048800CB004B08BB00460884003B088313800060
:100498000130BB003B08C607FF30C9070318CA0A6A
:1004A800FF30CA07FF304A06031D5C2AFF304906A1
:1004B80003192F28F62946088400831380010800B1
:1004C800831203132308A9002408AA002508AB00F7
:1004D80003102A0D2B0DAC002C08AF002608A9002C
:1004E8002708AA002808AB0003102A0D2B0DAC0022
:1004F8002C08AE002F0803198D2A2E082F02031886
:10050800942A2F03FF3A2E07A90019302902031C49
:10051800942A2608A3002708A4002808A500080094
:100528002E08031908002F082E020318A32A2E03E9
:10053800FF3A2F07A90019302902031808000630CE
:10054800A9002908AD00A51BAD17A81B2D17A417D6
:10055800FF30A305FF30A4050030A505A717FF301D
:10056800A605FF30A7050030A8052E082F0203189E
:10057800E32A01300310A60DA70DA80DFF3E031DA9
:10058800BE2A0130AE022E082F060319DE2A0130DA
:10059800AD022D0807390319DE2ABD2A01300310E0
:1005A800A50CA40CA30CFF3E031DD32A0130A900FF
:1005B8002908AF072F082E0603190C2BD22A2F085B
:1005C8002E0203180C2B01300310A30DA40DA50D4A
:1005D800FF3E031DE82A0130AF022E082F0603193B
:1005E800082B0130AD022D0807390319082BE72A1B
:1005F80001300310A80CA70CA60CFF3E031DFD2A12
:100608000130A9002908AE072F082E06031DFC2A71
:10061800AD1F1E2BFF30A306FF30A406FF30A50632
:100628000130A307003003180130A4070030031875
:100638000130A5072D1F302BFF30A606FF30A70677
:10064800FF30A8060130A607003003180130A707BD
:10065800003003180130A807AD012308A6072408B5
:1006680003110318240A031DA707250803110318FB
:10067800250A031DA807A81F532BFF30A606FF3025
:10068800A706FF30A8060130A6070030031801307E
:10069800A707003003180130A807AD01AD0A2608E6
:1006A800F4002708F5002808F6002F08A9002908F3
:1006B800F7002D08AA002A08F8000A128A118726CE
:1006C800740883120313A3007508A4007608A50014
:1006D80008001F3083160313850083120313850156
:1006E80083160313860183120313860183160313EB
:1006F800870183120313870183160313880183126A
:1007080003138801831603138901831203138901D4
:100718000A128A156E260A128A110A128A15A92740
:100728000A128A11F40100300A128A1580260A1268
:100738008A11183083120313DC006130DB006E303D
:10074800DA00DA0BA52BDB0BA52BDC0BA52B0000A5
:100758000B178B17F40100300A128A1580260A122B
:100768008A112930F6008030F7000A128A15ED2622
:100778000A128A11183083120313DC006130DB007F
:100788006E30DA00DA0BC62BDB0BC62BDC0BC62B64
:1007980000000130F4000030F5000A128A15962690
:1007A8000A128A11831203131E08E301E307831652
:1007B80003131E0883120313E201E2073230A60076
:1007C800C830A7003D30A8006308A401A407620848
:1007D800A301A3070A128A11E5270A128A118312B4
:1007E80003132308A9002408AA002508AB000A124D
:1007F8008A116C240A128A11831203132608DF0057
:100808002708E0002808E1005F08CC006008CD0058
:100818006108CE006530DA005A08CF000A128A1142
:100828003F250A128A1183120313DB005B08E400D8
:100838000A128A15CA260A128A11F40100300A120D
:100848008A1580260A128A11093083120313DA00E6
:100858005A08F40000300A128A1580260A128A11F2
:100868008312031364080A128A1533270A128A119D
:10087800750883120313DE01DE077408DD01DD0746
:10088800FC30DD070318DE0AFF30DE072530DA000A
:100898005D086407DB005B0884005A088313800046
:1008A8006408F6000030F7000A128A15ED260A12CD
:1008B8008A11033083120313DC005730DB006E30DB
:1008C800DA00DA0B652CDB0B652CDC0B652CCD2BE9
:1008D800831203132608AC002708AD002808AE00D1
:1008E80003102D0D2E0DAF002F08B000B008031D0A
:1008F800842C0030A6000030A7000030A8000800B3
:100908002908AC002A08AD002B08AE0003102D0DF5
:100918002E0DAF002F08B500B508031D9A2C003026
:10092800A6000030A7000030A800080035087B3E6C
:10093800AC002C08B0072608AC002708AD00280832
:10094800AE0010300310AE0CAD0CAC0CFF3E031D16
:10095800A62C2C08AF002F08B5002908AC002A08DF
:10096800AD002B08AE0010300310AE0CAD0CAC0C73
:10097800FF3E031DB82C2C08AF002F08B5068030A9
:10098800AC002C08B505A717AA17FF30A905FF303A
:10099800AA050030AB050030B1000030B2000030CD
:1009A800B3000730AC002C08B400261CE92C290839
:1009B800B1072A08031103182A0A031DB2072B08D6
:1009C800031103182B0A031DB30701300310A80CE9
:1009D800A70CA60CFF3E031DEA2C01300310A90D3D
:1009E800AA0DAB0DFF3E031DF22C0130B402031D0E
:1009F800D92C0930AC002C08B400261C112D29086C
:100A0800B1072A08031103182A0A031DB2072B0885
:100A1800031103182B0A031DB30701300310A80C98
:100A2800A70CA60CFF3E031D122D01300310B30CBA
:100A3800B20CB10CFF3E031D1A2D0130B402031D88
:100A4800012D3108F4003208F5003308F6003008AB
:100A5800AC002C08F7003508AD002D08F8000A1284
:100A68008A118726740883120313A6007508A70045
:100A78007608A8000800A03083120313D00050089D
:100A8800D9004C08F4004D08F5004E08F600003077
:100A9800F7000030F8000030F9000A128A11F52634
:100AA8000A128A110318782D2D3083120313D000EF
:100AB800590884005008831380000130D000500882
:100AC800D9074C08F4004D08F5004E08F6000A1244
:100AD8008A1526260A128A11740883120313CC0079
:100AE8007508CD007608CE00831203134C08B600B3
:100AF8004D08B7004E08B8000A128A11F9250A12E3
:100B08008A11831203133908D8003808D700370828
:100B1800D6003608D5005808A6005708A50056087C
:100B2800A4005508A3000A128A11B6270A128A11CE
:100B3800831203132308B0002408B1002508B2006B
:100B48004C08B3004D08B4004E08B5000A128A15C7
:100B5800AE260A128A11831203133008CC0031081A
:100B6800CD003208CE004C08A9004D08AA004E0856
:100B7800AB002430A6007430A7004930A8000A1240
:100B88008A116C240A128A11831203132608B600EC
:100B98002708B7002808B8000A128A11F9250A128E
:100BA8008A11831203133908D4003808D300370890
:100BB800D2003608D1003A30D0005008B2005808A8
:100BC800B6005708B5005608B4005508B3005408D5
:100BD800BA005308B9005208B8005108B7005908BC
:100BE8000A128A112820A03008008312031336083D
:100BF800BA003708BB003808BC0003103B0D3C0D99
:100C0800BD003D08C300C308031D132E0030B90002
:100C18000030B8000030B7000030B60008003608D1
:100C2800BA003708BB003808BC0017300310BC0CEA
:100C3800BB0CBA0CFF3E031D1A2E3A08BD003D0836
:100C4800BE00B717FF30B605FF30B7050030B8054E
:100C58003608BF003708C0003808C100C2018E300E
:100C6800C302C31F552E4308803A8F3E0318452EF2
:100C78000030B9000030B8000030B7000030B600CE
:100C8800080001300310C20CC10CC00CBF0CFF3EA1
:100C9800031D462E0130BA003A08C3070319702E07
:100CA800452E18304302031C6D2E0030B900003069
:100CB800B8000030B7000030B60008000130BA00B4
:100CC8000310BF0DC00DC10DC20DBA0B642E01304B
:100CD800C302C308031D622E3E0803197E2EBF09F6
:100CE800C009C109C209BF0A0319C00A0319C10A08
:100CF8000319C20A4208B9004108B8004008B70001
:100D08003F08B6000800770803198F2E7608750487
:100D18007404031DA42E0030F4000030F5000030E8
:100D2800F6000800013083120313A0002008F7071B
:100D380001300310F60CF50CF40CFF3E031D9D2E3C
:100D4800FE3076050319C12E962E01308312031347
:100D5800A0002008F7070130F4070030031801301D
:100D6800F507003003180130F60701300310F60CC0
:100D7800F50CF40CFF3E031DBA2EFF30760503195F
:100D8800D02EA92E0130F70201300310F40DF50D15
:100D9800F60DFF3E031DC92EF51FC62E7718DA2E55
:100DA800FF30F4057F30F505FF30F6050310F70C2A
:100DB800770883120313A000A101A20110300310C9
:100DC800A00DA10DA20DFF3E031DE32E2008F40483
:100DD8002108F5042208F604780803190800F61714
:100DE8000800F61F1E2F003083120313A0000030E6
:100DF800A1008030A2007409A3007509A400760937
:100E0800A500A30A0319A40A0319A50A2308A00721
:100E180024080318240F112F122FA10725080318DF
:100E2800250F172F182FA2072008F4002108F50016
:100E38002208F600F91F472F003083120313A00081
:100E48000030A1008030A2007709A3007809A4002F
:100E58007909A500A30A0319A40A0319A50A2308F6
:100E6800A00724080318240F3A2F3B2FA1072508B1
:100E78000318250F402F412FA2072008F70021084B
:100E8800F8002208F9008030F6068030F906790863
:100E98007602031D080078087502031D080077080C
:100EA800740208000030F8000030F7000030F60047
:100EB8000030F500831203132308220421042004C0
:100EC8000319AD2FF901F90AA31B782F0130F4009B
:100ED8000310A00DA10DA20DA30DF40B6C2F013072
:100EE800F4007408F907682F0130F4000310F50DB9
:100EF800F60DF70DF80DF40B7A2F23082702031DC2
:100F08008F2F22082602031D8F2F21082502031D7B
:100F18008F2F20082402031CA02F2008A4022108D8
:100F2800031C210FA5022208031C220FA602230876
:100F3800031C230FA702751401300310A30CA20C85
:100F4800A10CA00CFF3E031DA12F0130F902031DC7
:100F5800782F7808A3007708A2007608A100750802
:100F6800A00008008E30F900790883120313A70047
:100F7800FF3026050319CE2F01300310A60CA50C4F
:100F8800A40CA30CFF3E031DC12F0130F900790802
:100F9800A707BC2F2308F4002408F5002508F6004D
:100FA8002708F9007908F700F8010A128A1187263C
:100FB800740883120313A3007508A4007608A5001B
:100FC8000800831203132308F4002408F500F6012F
:100FD8008E30F9007908F700F8010A128A1187267D
:100FE800740883120313A3007508A4007608A500EB
:020FF8000800EF
:10100000FF1B0A2883137F1883170008840A03191B
:10101000FF0A080008308A000408840A82070034A6
:1010200001340034003400340A3400340034003415
:101030006434003400340034E834033400340034C1
:101040001034273400340034A034863401340034A2
:10105000403442340F3400348034963498340034B1
:101060000034E134F53405340034CA349A343B3466
:1010700049346E3469346334693461346C346934AE
:101080007A3461346E3464346F342E342E342E341A
:10109000003425346C3475342E34253436342E34F3
:0810A00036346C347534003461
:101C4C00760875047404031908008030F606080041
:101C5C0064008001840A04060319003404062F2E44
:101C6C000C087308FF0072088A0071088400700E5B
:101C7C008300FE0E7E0E0900F500F4013A30750269
:101C8C0003184E2E30307502031C4E2EF401F40A4C
:101C9C00740C0800F50083120313091075088800F2
:101CAC0089143D30F400F40B592E83120313891060
:101CBC000800F500831203130914750888008914B1
:101CCC003D30F400F40B682E8312031389100800C6
:101CDC00831603139F179F111F159F101F1083123C
:101CEC0003139F171F13831603130C138312031371
:101CFC000C130800F600831203130910F608031DD9
:101D0C008A2E7408803E8C2E7408C03E880089147C
:101D1C003D30F500F50B902E83120313891008004B
:101D2C007408F600F60DF60DF60D831203131F085A
:101D3C007606C73976069F001F142630F600F60B80
:101D4C00A52E831203131F151F19AA2E0C1308009E
:101D5C00803083120313B2063308A3003408A400A6
:101D6C003508A5003008A6003108A7003208A800E5
:101D7C000A128A116422831203132308B000240868
:101D8C00B1002508B200080001300A128A1550264D
:101D9C000A128A150C30F700F730F600F60BD42E29
:101DAC00F70BD42E0C300A128A1550260A128A15FB
:101DBC003D30F600F60BE02E06300A128A1550263E
:101DCC000A128A153D30F600F60BEA2E0800770849
:101DDC0083120313FF00760884000A128A15002070
:101DEC000A128A15003803190800770883120313A6
:101DFC00FF00760884000A128A1500200A128A1540
:101E0C000A128A155F260A128A150130F607031882
:101E1C00F70AED2EF801F901741C1A2F7608F80751
:101E2C000318F90A7708F90701300310F60DF70DBE
:101E3C00FF3E031D1B2F01300310F50CF40CFF3E6D
:101E4C00031D222F75087404031D122F7908F50148
:101E5C00F5077808F401F407080083120313A000B7
:101E6C002008F6007608A10021088400831380085E
:101E7C000319452F0130F6007608A1073A2F2008E8
:101E8C00F6000030F700F609F709F60A0319F70A0D
:101E9C002108F8000030F90076087807F40077087C
:101EAC000318770A7907F5000800831203132B082F
:101EBC002A04290428040319A02FB101B10AAB1B71
:101ECC00752F0130B0000310A80DA90DAA0DAB0D94
:101EDC00B00B692F0130B0003008B107652F2B080B
:101EEC002F02031D832F2A082E02031D832F29087E
:101EFC002D02031D832F28082C02031C932F280866
:101F0C00AC022908031C290FAD022A08031C2A0F56
:101F1C00AE022B08031C2B0FAF0201300310AB0CCD
:101F2C00AA0CA90CA80CFF3E031D942F0130B10282
:101F3C00031D752F2F08AB002E08AA002D08A90031
:101F4C002C08A80008005A30F700C330F600F60B36
:101F5C00AD2FF70BAD2F30300A128A1550260A120E
:101F6C008A151830F700EF30F600F60BBB2FF70B85
:101F7C00BB2F30300A128A1550260A128A15993056
:101F8C00F600F60BC72F30300A128A1550260A12AB
:101F9C008A153D30F600F60BD12F38300A128A150F
:101FAC0050260A128A153D30F600F60BDB2F013055
:101FBC000A128A1550260A128A150C30F700F730CF
:101FCC00F600F60BE72FF70BE72F0C300A128A15E9
:101FDC0050260A128A153D30F600F60BF32F063008
:101FEC000A128A1550260A128A153D30F600F60B95
:041FFC00FD2F0800AD
:02400E0032FF7F
:00000001FF
